:020000000F28C7
:10000800CE00030E83128E0004088F000A089000A9
:100018004F089100F62810288312A101A201A3011C
:100028008301C7288312061586100610061E20288D
:10003800061A1C2801300800861E2628861A22283F
:1000480004300800061F2C28061B28280730080043
:10005800861F3228861B2E280A30080006118614AF
:100068000610061E3B28061A372802300800861E8E
:100078004128861A3D2805300800061F4728061B18
:10008800432808300800861F4D28861B4928003061
:100098000800061186100614061E5628061A52284D
:1000A80003300800861E5C28861A58280630080087
:1000B800061F6228061B5E2809300800861F68286C
:1000C800861B64280B30080005309200003093002E
:1000D800010899009A01190894001A0895007B20D4
:1000E800831212081304031D68280C3008008312B9
:1000F8009801951F862894099509940A0319950A69
:100108009801980A931F8D2892099309920A031956
:10011800930A120813040319BA289701970A931B24
:10012800A12801300310920D930DFF3E031D962860
:100138000130960016089707932813081502031D27
:10014800A72812081402031CAF28120894021308E7
:10015800031C9503950201300310930C920CFF3E8B
:10016800031DB02801309702031DA12818080319A0
:10017800C22894099509940A0319950A1508930049
:100188001408920008008312A301A20183168112A9
:100198008111073081040C30831281008B018B128E
:1001A8000B118B17103083168500F83086008312E8
:1001B80085018601162083129F001F08A0000C30BD
:1001C80020060319DE2820089F001F08A300282105
:1001D80083122303031DF2282121DE282F218312F5
:1001E8008501DE280B1D092901308D000D08A107A6
:1001F80004302106031D0529A101142183122208B8
:1002080085000B118B160C3081001108CF001008E7
:100218008A000F0884000E0E8300CE0E4E0E0900D1
:1002280083122303031D1C2901308C000C08A2072C
:100238000F308C000C08A20508008312A1010B11D5
:100248008B160C3081000800831223030319A201C6
:0A0258002208850008008B12080040
:00000001FF
